{
  "contractName": "Game",
  "abi": [
    {
      "inputs": [],
      "stateMutability": "nonpayable",
      "type": "constructor"
    },
    {
      "anonymous": false,
      "inputs": [
        {
          "indexed": false,
          "internalType": "address",
          "name": "addr",
          "type": "address"
        }
      ],
      "name": "add",
      "type": "event"
    },
    {
      "anonymous": false,
      "inputs": [
        {
          "indexed": false,
          "internalType": "uint256",
          "name": "value",
          "type": "uint256"
        }
      ],
      "name": "blockNum",
      "type": "event"
    },
    {
      "anonymous": false,
      "inputs": [
        {
          "indexed": false,
          "internalType": "uint256",
          "name": "value",
          "type": "uint256"
        }
      ],
      "name": "bt",
      "type": "event"
    },
    {
      "anonymous": false,
      "inputs": [
        {
          "indexed": false,
          "internalType": "uint256",
          "name": "value",
          "type": "uint256"
        }
      ],
      "name": "dp",
      "type": "event"
    },
    {
      "inputs": [
        {
          "internalType": "address",
          "name": "addr",
          "type": "address"
        },
        {
          "internalType": "uint256",
          "name": "deposit",
          "type": "uint256"
        },
        {
          "internalType": "uint256",
          "name": "bet",
          "type": "uint256"
        }
      ],
      "name": "joinGame",
      "outputs": [],
      "stateMutability": "payable",
      "type": "function"
    },
    {
      "inputs": [],
      "name": "stand",
      "outputs": [],
      "stateMutability": "nonpayable",
      "type": "function"
    },
    {
      "inputs": [],
      "name": "hit",
      "outputs": [],
      "stateMutability": "nonpayable",
      "type": "function"
    },
    {
      "inputs": [],
      "name": "doubleDown",
      "outputs": [],
      "stateMutability": "payable",
      "type": "function"
    },
    {
      "inputs": [],
      "name": "withdraw",
      "outputs": [],
      "stateMutability": "payable",
      "type": "function"
    },
    {
      "inputs": [],
      "name": "getPlayerNum",
      "outputs": [
        {
          "internalType": "uint256",
          "name": "",
          "type": "uint256"
        }
      ],
      "stateMutability": "view",
      "type": "function"
    }
  ],
  "bytecode": "0x60806040523480156200001157600080fd5b5030600760006101000a81548173ffffffffffffffffffffffffffffffffffffffff021916908373ffffffffffffffffffffffffffffffffffffffff1602179055506000600190505b60348111620000a257600681908060018154018082558091505060019003906000526020600020016000909190919091505580806200009990620001a1565b9150506200005a565b50620000b36200011060201b60201c565b6004819055506000600560006101000a81548160ff0219169083151502179055506000600560016101000a81548160ff0219169083151502179055506001600560026101000a81548160ff0219169083151502179055506200021c565b6000600560029054906101000a900460ff161562000162577f5ccd7c4d518eb335fcc41f9824098677a44e1b93474c736375d5cb354695a60443604051620001599190620001ff565b60405180910390a15b43905090565b7f4e487b7100000000000000000000000000000000000000000000000000000000600052601160045260246000fd5b6000819050919050565b6000620001ae8262000197565b91507fffffffffffffffffffffffffffffffffffffffffffffffffffffffffffffffff8203620001e357620001e262000168565b5b600182019050919050565b620001f98162000197565b82525050565b6000602082019050620002166000830184620001ee565b92915050565b61141f806200022c6000396000f3fe6080604052600436106100555760003560e01c8063293d50501461005a5780632ae3594a146100855780633ccfd60b1461009c5780637ace30cc146100a6578063a7e1f6a2146100c2578063c2897b10146100cc575b600080fd5b34801561006657600080fd5b5061006f6100e3565b60405161007c9190610dca565b60405180910390f35b34801561009157600080fd5b5061009a6100f0565b005b6100a46102bc565b005b6100c060048036038101906100bb9190610e74565b61068c565b005b6100ca6108f8565b005b3480156100d857600080fd5b506100e1610b41565b005b6000600880549050905090565b600560009054906101000a900460ff1661013f576040517f08c379a000000000000000000000000000000000000000000000000000000000815260040161013690610f4a565b60405180910390fd5b600260003373ffffffffffffffffffffffffffffffffffffffff1673ffffffffffffffffffffffffffffffffffffffff16815260200190815260200160002060009054906101000a900460ff16156101cc576040517f08c379a00000000000000000000000000000000000000000000000000000000081526004016101c390610fb6565b60405180910390fd5b60008060003373ffffffffffffffffffffffffffffffffffffffff1673ffffffffffffffffffffffffffffffffffffffff168152602001908152602001600020540361024d576040517f08c379a000000000000000000000000000000000000000000000000000000000815260040161024490611022565b60405180910390fd5b600360003373ffffffffffffffffffffffffffffffffffffffff1673ffffffffffffffffffffffffffffffffffffffff168152602001908152602001600020610294610cf8565b9080600181540180825580915050600190039060005260206000200160009091909190915055565b600560039054906101000a900460ff161561030c576040517f08c379a00000000000000000000000000000000000000000000000000000000081526004016103039061108e565b60405180910390fd5b6001600560036101000a81548160ff021916908315150217905550600560019054906101000a900460ff16610376576040517f08c379a000000000000000000000000000000000000000000000000000000000815260040161036d906110fa565b60405180910390fd5b60008060003373ffffffffffffffffffffffffffffffffffffffff1673ffffffffffffffffffffffffffffffffffffffff16815260200190815260200160002054036103f7576040517f08c379a00000000000000000000000000000000000000000000000000000000081526004016103ee90611022565b60405180910390fd5b60008060003373ffffffffffffffffffffffffffffffffffffffff1673ffffffffffffffffffffffffffffffffffffffff16815260200190815260200160002054905060008060003373ffffffffffffffffffffffffffffffffffffffff1673ffffffffffffffffffffffffffffffffffffffff1681526020019081526020016000208190555060003373ffffffffffffffffffffffffffffffffffffffff16826040516104a49061114b565b60006040518083038185875af1925050503d80600081146104e1576040519150601f19603f3d011682016040523d82523d6000602084013e6104e6565b606091505b505090508061052a576040517f08c379a0000000000000000000000000000000000000000000000000000000008152600401610521906111ac565b60405180910390fd5b6000600160003373ffffffffffffffffffffffffffffffffffffffff1673ffffffffffffffffffffffffffffffffffffffff1681526020019081526020016000205490506000600160003373ffffffffffffffffffffffffffffffffffffffff1673ffffffffffffffffffffffffffffffffffffffff1681526020019081526020016000208190555060003373ffffffffffffffffffffffffffffffffffffffff166002836105d991906111fb565b6040516105e59061114b565b60006040518083038185875af1925050503d8060008114610622576040519150601f19603f3d011682016040523d82523d6000602084013e610627565b606091505b505090508061066b576040517f08c379a0000000000000000000000000000000000000000000000000000000008152600401610662906112a1565b60405180910390fd5b505050506000600560036101000a81548160ff021916908315150217905550565b600560009054906101000a900460ff16156106dc576040517f08c379a00000000000000000000000000000000000000000000000000000000081526004016106d39061130d565b60405180910390fd5b8060026106e991906111fb565b8210158015610700575060056106fd6100e3565b11155b61070957600080fd5b6008339080600181540180825580915050600190039060005260206000200160009091909190916101000a81548173ffffffffffffffffffffffffffffffffffffffff021916908373ffffffffffffffffffffffffffffffffffffffff160217905550600560029054906101000a900460ff161561085e577f5ccd7c4d518eb335fcc41f9824098677a44e1b93474c736375d5cb354695a604436040516107b09190610dca565b60405180910390a17f0a3b0a4f4c6e53dce3dbcad5614cb2ba3a0fa7326d03c5d64b4fa2d565492737836040516107e7919061133c565b60405180910390a17fffd2d43f23dc99f9407b5bd94038a82e06028e593866bf9b3f525407f86b48498260405161081e9190610dca565b60405180910390a17f994fb4bc20ba0ba6c74999c77019c9bc0cd42a57cc6b7462de553e44ae53aa06816040516108559190610dca565b60405180910390a15b816000808573ffffffffffffffffffffffffffffffffffffffff1673ffffffffffffffffffffffffffffffffffffffff1681526020019081526020016000208190555080600160008573ffffffffffffffffffffffffffffffffffffffff1673ffffffffffffffffffffffffffffffffffffffff168152602001908152602001600020819055506108ed610d5c565b600481905550505050565b600560009054906101000a900460ff16610947576040517f08c379a000000000000000000000000000000000000000000000000000000000815260040161093e90610f4a565b60405180910390fd5b600260003373ffffffffffffffffffffffffffffffffffffffff1673ffffffffffffffffffffffffffffffffffffffff16815260200190815260200160002060009054906101000a900460ff16156109d4576040517f08c379a00000000000000000000000000000000000000000000000000000000081526004016109cb90610fb6565b60405180910390fd5b60008060003373ffffffffffffffffffffffffffffffffffffffff1673ffffffffffffffffffffffffffffffffffffffff1681526020019081526020016000205403610a55576040517f08c379a0000000000000000000000000000000000000000000000000000000008152600401610a4c90611022565b60405180910390fd5b600160003373ffffffffffffffffffffffffffffffffffffffff1673ffffffffffffffffffffffffffffffffffffffff168152602001908152602001600020543414610aa057600080fd5b600160003373ffffffffffffffffffffffffffffffffffffffff1673ffffffffffffffffffffffffffffffffffffffff168152602001908152602001600020546002610aec91906111fb565b600160003373ffffffffffffffffffffffffffffffffffffffff1673ffffffffffffffffffffffffffffffffffffffff16815260200190815260200160002081905550610b376100f0565b610b3f610b41565b565b600560009054906101000a900460ff16610b90576040517f08c379a0000000000000000000000000000000000000000000000000000000008152600401610b8790610f4a565b60405180910390fd5b600260003373ffffffffffffffffffffffffffffffffffffffff1673ffffffffffffffffffffffffffffffffffffffff16815260200190815260200160002060009054906101000a900460ff1615610c1d576040517f08c379a0000000000000000000000000000000000000000000000000000000008152600401610c1490610fb6565b60405180910390fd5b60008060003373ffffffffffffffffffffffffffffffffffffffff1673ffffffffffffffffffffffffffffffffffffffff1681526020019081526020016000205403610c9e576040517f08c379a0000000000000000000000000000000000000000000000000000000008152600401610c9590611022565b60405180910390fd5b6001600260003373ffffffffffffffffffffffffffffffffffffffff1673ffffffffffffffffffffffffffffffffffffffff16815260200190815260200160002060006101000a81548160ff021916908315150217905550565b60008060066001600680549050610d0f9190611357565b81548110610d2057610d1f61138b565b5b906000526020600020015490506006805480610d3f57610d3e6113ba565b5b600190038181906000526020600020016000905590558091505090565b6000600560029054906101000a900460ff1615610dab577f5ccd7c4d518eb335fcc41f9824098677a44e1b93474c736375d5cb354695a60443604051610da29190610dca565b60405180910390a15b43905090565b6000819050919050565b610dc481610db1565b82525050565b6000602082019050610ddf6000830184610dbb565b92915050565b600080fd5b600073ffffffffffffffffffffffffffffffffffffffff82169050919050565b6000610e1582610dea565b9050919050565b610e2581610e0a565b8114610e3057600080fd5b50565b600081359050610e4281610e1c565b92915050565b610e5181610db1565b8114610e5c57600080fd5b50565b600081359050610e6e81610e48565b92915050565b600080600060608486031215610e8d57610e8c610de5565b5b6000610e9b86828701610e33565b9350506020610eac86828701610e5f565b9250506040610ebd86828701610e5f565b9150509250925092565b600082825260208201905092915050565b7f536f7272792c207468652067616d65206861736e74207374617274656420796560008201527f742e000000000000000000000000000000000000000000000000000000000000602082015250565b6000610f34602283610ec7565b9150610f3f82610ed8565b604082019050919050565b60006020820190508181036000830152610f6381610f27565b9050919050565b7f596f752068617665207374616e64656400000000000000000000000000000000600082015250565b6000610fa0601083610ec7565b9150610fab82610f6a565b602082019050919050565b60006020820190508181036000830152610fcf81610f93565b9050919050565b7f596f7520617265206e6f74206120706c61796572000000000000000000000000600082015250565b600061100c601483610ec7565b915061101782610fd6565b602082019050919050565b6000602082019050818103600083015261103b81610fff565b9050919050565b7f63616e27742072652d656e7472792061747461636b0000000000000000000000600082015250565b6000611078601583610ec7565b915061108382611042565b602082019050919050565b600060208201905081810360008301526110a78161106b565b9050919050565b7f47616d65206973206e6f7420656e646564000000000000000000000000000000600082015250565b60006110e4601183610ec7565b91506110ef826110ae565b602082019050919050565b60006020820190508181036000830152611113816110d7565b9050919050565b600081905092915050565b50565b600061113560008361111a565b915061114082611125565b600082019050919050565b600061115682611128565b9150819050919050565b7f4465706f73697420726566756e64206661696c65642e00000000000000000000600082015250565b6000611196601683610ec7565b91506111a182611160565b602082019050919050565b600060208201905081810360008301526111c581611189565b9050919050565b7f4e487b7100000000000000000000000000000000000000000000000000000000600052601160045260246000fd5b600061120682610db1565b915061121183610db1565b9250817fffffffffffffffffffffffffffffffffffffffffffffffffffffffffffffffff048311821515161561124a576112496111cc565b5b828202905092915050565b7f42657420726566756e64206661696c65642e0000000000000000000000000000600082015250565b600061128b601283610ec7565b915061129682611255565b602082019050919050565b600060208201905081810360008301526112ba8161127e565b9050919050565b7f536f7272792c207468652067616d652068617320737461727465642e00000000600082015250565b60006112f7601c83610ec7565b9150611302826112c1565b602082019050919050565b60006020820190508181036000830152611326816112ea565b9050919050565b61133681610e0a565b82525050565b6000602082019050611351600083018461132d565b92915050565b600061136282610db1565b915061136d83610db1565b9250828210156113805761137f6111cc565b5b828203905092915050565b7f4e487b7100000000000000000000000000000000000000000000000000000000600052603260045260246000fd5b7f4e487b7100000000000000000000000000000000000000000000000000000000600052603160045260246000fdfea264697066735822122078e143ce6d18db8622df754230776d0e7d275a5cbf764acbbe87f684624e575d64736f6c634300080e0033",
  "immutableReferences": {},
  "source": "// SPDX-License-Identifier: MIT\r\npragma solidity ^0.8.14;\r\n\r\ncontract Game {\r\n    // Game info \r\n    mapping (address => uint) private deposits;\r\n    mapping (address => uint) private bets;\r\n    mapping (address => bool) private isStand;\r\n    mapping (address => uint[]) private hands;\r\n\r\n    uint private lastJoin;\r\n    bool private isStart;\r\n    bool private isEnd;\r\n    bool private debug;\r\n    bool private lock;\r\n\r\n    uint[] private deck;\r\n    address private dealer;\r\n    address payable[] private players;\r\n    \r\n    uint constant DEALER_MIN_POINTS = 17;\r\n    uint constant MAX_POINTS = 21;\r\n    \r\n    // debugging events\r\n    event blockNum(uint value);\r\n    event add(address addr);\r\n    event dp(uint value);\r\n    event bt(uint value);\r\n\r\n    constructor() {\r\n        dealer = address(this);\r\n        \r\n        for(uint i=1; i<=52; i++){\r\n            deck.push(i);\r\n        }\r\n\r\n        lastJoin = getTime();\r\n        isStart = false;\r\n        // playerNum = 0;\r\n        isEnd = false;\r\n        debug= true;\r\n    }\r\n\r\n    // game has started\r\n    modifier gameStarted() {\r\n        require(isStart, \"Sorry, the game hasnt started yet.\");\r\n        _;\r\n    }\r\n\r\n    // game has not started \r\n    modifier gameNotStarted() {\r\n        require(!isStart, \"Sorry, the game has started.\");\r\n        _;\r\n    }\r\n\r\n    // player has not stand yet\r\n    modifier notStand() {\r\n        require(!isStand[msg.sender], \"You have standed\");\r\n        _;\r\n    }\r\n\r\n    modifier GameEnded(){\r\n        require(isEnd, \"Game is not ended\");\r\n        _;\r\n    }\r\n\r\n    modifier areAllPlayersStand() {\r\n        for (uint i=0; i<players.length; i++){\r\n            require(isStand[players[i]], \"There is a player not standed\");\r\n        }\r\n        _;\r\n    }\r\n\r\n    modifier isPlayer() {\r\n        require(deposits[msg.sender] != 0, \"You are not a player\");\r\n        _;\r\n    }\r\n\r\n    modifier notReEntrancy() {\r\n        require(!lock, \"can't re-entry attack\");\r\n        lock = true;\r\n        _;\r\n        lock = false;\r\n    }\r\n\r\n    // **** make sure modify the function to view ****   get time \r\n    function getTime() private returns(uint time) {\r\n        if (debug) {emit blockNum(block.number); }\r\n        return block.number;\r\n    }\r\n\r\n    // JoinGame - allows players to join an existing game\r\n    function joinGame(address addr, uint deposit, uint bet) public payable gameNotStarted {\r\n        require(deposit >= 2 * bet && getPlayerNum() <= 5);    // make sure deposit is greater than bet\r\n        players.push(payable(msg.sender));    // add player to the players (payable)\r\n        \r\n        if (debug) {\r\n            emit blockNum(block.number); \r\n            emit add(addr);\r\n            emit dp(deposit);\r\n            emit bt(bet);\r\n        }\r\n\r\n        // points[addr] = 0;\r\n        deposits[addr] = deposit;\r\n        bets[addr] = bet;\r\n        // playerNum++;\r\n        lastJoin = getTime();   // update last join time\r\n    }\r\n\r\n    // startGame - allows the dealer to start the game after someone joined\r\n    function startGame() private gameNotStarted {\r\n        require(getPlayerNum() > 0, \"Not enough players\");\r\n        require(getTime() - lastJoin == 3, \"Wait until more players join the game.\");\r\n\r\n        // draw one card for dealder\r\n        hands[dealer].push(drawOne());\r\n\r\n        for (uint i=0; i<=getPlayerNum(); i++)\r\n        {   \r\n            /* TODO  \r\n            1. get the deck from the contract and random draw two card for each player\r\n            2 .update deck and player points \r\n            */\r\n            // uint[] memory hand = new uint[](10);\r\n            // hand.push(drawOne());\r\n            // hand.push(drawOne());\r\n            // hands[msg.sender] = hand;\r\n            hands[msg.sender].push(drawOne());\r\n            hands[msg.sender].push(drawOne());\r\n        }\r\n    }\r\n\r\n    function drawOne() private returns (uint) {\r\n        uint temp = deck[deck.length - 1];\r\n        deck.pop();\r\n        return temp;\r\n    }\r\n\r\n    // endGame - allows dealer to end the game -- Can only be called by the dealer\r\n    function endGame() private gameStarted areAllPlayersStand {\r\n        /*  TODO\r\n            1. only the dealer can call this function (properly work)\r\n            2. need to check all players have standed the game\r\n            3. might need to call withdraw as the game has ended.\r\n        */\r\n        isEnd = true;\r\n\r\n        hands[dealer].push(drawOne());\r\n        uint dealerPoints = getPoints(dealer);\r\n        \r\n        // draw cards until 17 points\r\n        while (dealerPoints < DEALER_MIN_POINTS) {\r\n            hands[dealer].push(drawOne());\r\n            dealerPoints = getPoints(dealer);\r\n        }\r\n\r\n        // if dealer bust, then all players win\r\n        if (dealerPoints > MAX_POINTS) {\r\n            for (uint i=0; i<=getPlayerNum(); i++) {\r\n                uint playerPoints = getPoints(players[i]);\r\n                if (playerPoints > MAX_POINTS) {\r\n                    bets[players[i]] = 0;\r\n                }\r\n            }\r\n        } else {\r\n            for (uint i=0; i<=getPlayerNum(); i++)\r\n            {\r\n                uint playerPoints = getPoints(players[i]);\r\n                if (playerPoints < dealerPoints || playerPoints > MAX_POINTS) {\r\n                    bets[players[i]] = 0;\r\n                }\r\n            }\r\n        }\r\n    }\r\n\r\n    // stand - allows a player to stand \r\n    function stand() public gameStarted notStand isPlayer {\r\n        isStand[msg.sender] = true;\r\n    }\r\n\r\n    // hit - allows a player to hit\r\n    function hit() public gameStarted notStand isPlayer {\r\n        /* TODO\r\n            1. randomly draw one card from the deck (consider shuffle the deck)\r\n            2. update player points\r\n        */\r\n        // uint temp = drawOne();\r\n        // uint[] storage hand = hands[msg.sender];\r\n        // hands[msg.sender] = hand;\r\n        hands[msg.sender].push(drawOne());\r\n    }\r\n\r\n    // doubleDown - allows a player to double down\r\n    function doubleDown() public payable gameStarted notStand isPlayer {\r\n        // require(!isDouble[msg.sender], \"You have double downed.\");\r\n        require(msg.value == bets[msg.sender]); // double down ***** ? use == to restrict the value\r\n        bets[msg.sender] = 2 * bets[msg.sender];\r\n        hit();\r\n        stand();\r\n        // isDouble[msg.sender] = true;\r\n    }\r\n\r\n    // reveal - the dealer reveals the card on hand\r\n    // function reveal() public gameStarted {\r\n    //     /* TODO\r\n    //         1. dealer reveal the hidden card\r\n    //         2. calculate the points dealer has on hand\r\n    //         3. call another function to end the game (with conditions)\r\n    //     */ \r\n    // }\r\n\r\n    // getPoints - returns the points of a player or dealer ----------DONE\r\n    function getPoints(address addr) private view returns (uint value) {\r\n        uint[] memory hand = hands[addr];\r\n        uint points = 0;\r\n        for (uint i=0; i<hand.length; i++) {\r\n            points += getCardPoints(hand[i]);\r\n        }\r\n        return points;\r\n    }\r\n\r\n    function getCardPoints(uint card) private pure returns (uint value) {\r\n        uint points = card % 13;\r\n        if (points >= 10) {\r\n            return 10;\r\n        } \r\n        return points;\r\n    }\r\n\r\n    // withdraw - dealer or playes can withdraw money \r\n    function withdraw() public payable notReEntrancy GameEnded isPlayer {\r\n        /* TODO\r\n            1. refund money iff something bad happened\r\n            2. allow winners to withdraw their money\r\n            3. re-entency attack\r\n        */\r\n        uint desposit = deposits[msg.sender];\r\n        deposits[msg.sender] = 0;\r\n        (bool despositSuccess, ) = msg.sender.call{value:desposit}(\"\");\r\n        require(despositSuccess, \"Deposit refund failed.\");\r\n\r\n        uint bet = bets[msg.sender];\r\n        bets[msg.sender] = 0;\r\n        (bool betSuccess, ) = msg.sender.call{value: bet*2}(\"\");\r\n        require(betSuccess, \"Bet refund failed.\");\r\n    }\r\n\r\n    // Black Jack\r\n    function blackJack() private gameStarted returns (bool isWin) {\r\n        /* TODO\r\n            1. conditions and cards\r\n            2. modify the winner\r\n            3. return bool\r\n        */\r\n    }\r\n\r\n    // get length of a list\r\n    function getPlayerNum() public view returns(uint) {  \r\n        return players.length;\r\n    } \r\n}\r\n\r\n\r\n",
  "sourcePath": "C:\\Users\\lijin\\OneDrive\\Desktop\\blackjack\\blackjack\\contracts\\Blackjack.sol",
  "compiler": {
    "name": "solc",
    "version": "0.8.14+commit.80d49f37.Emscripten.clang"
  },
  "schemaVersion": "3.4.7",
  "updatedAt": "2022-05-22T07:13:40.149Z",
  "devdoc": {
    "kind": "dev",
    "methods": {},
    "version": 1
  },
  "userdoc": {
    "kind": "user",
    "methods": {},
    "version": 1
  }
}