{
  "contractName": "Game",
  "abi": [
    {
      "inputs": [],
      "stateMutability": "nonpayable",
      "type": "constructor"
    },
    {
      "anonymous": false,
      "inputs": [
        {
          "indexed": false,
          "internalType": "address",
          "name": "addr",
          "type": "address"
        }
      ],
      "name": "add",
      "type": "event"
    },
    {
      "anonymous": false,
      "inputs": [
        {
          "indexed": false,
          "internalType": "uint256",
          "name": "value",
          "type": "uint256"
        }
      ],
      "name": "blockNum",
      "type": "event"
    },
    {
      "anonymous": false,
      "inputs": [
        {
          "indexed": false,
          "internalType": "uint256",
          "name": "value",
          "type": "uint256"
        }
      ],
      "name": "bt",
      "type": "event"
    },
    {
      "anonymous": false,
      "inputs": [
        {
          "indexed": false,
          "internalType": "uint256",
          "name": "value",
          "type": "uint256"
        }
      ],
      "name": "dp",
      "type": "event"
    },
    {
      "stateMutability": "payable",
      "type": "receive"
    },
    {
      "inputs": [
        {
          "internalType": "uint256",
          "name": "deposit",
          "type": "uint256"
        },
        {
          "internalType": "uint256",
          "name": "bet",
          "type": "uint256"
        }
      ],
      "name": "joinGame",
      "outputs": [],
      "stateMutability": "payable",
      "type": "function"
    },
    {
      "inputs": [],
      "name": "stand",
      "outputs": [],
      "stateMutability": "nonpayable",
      "type": "function"
    },
    {
      "inputs": [],
      "name": "hit",
      "outputs": [],
      "stateMutability": "nonpayable",
      "type": "function"
    },
    {
      "inputs": [],
      "name": "doubleDown",
      "outputs": [],
      "stateMutability": "payable",
      "type": "function"
    },
    {
      "inputs": [],
      "name": "withdraw",
      "outputs": [],
      "stateMutability": "payable",
      "type": "function"
    }
  ],
  "bytecode": "0x60806040523480156200001157600080fd5b5030600660006101000a81548173ffffffffffffffffffffffffffffffffffffffff021916908373ffffffffffffffffffffffffffffffffffffffff160217905550620000636200006960201b60201c565b6200038d565b600067ffffffffffffffff811115620000875762000086620002d8565b5b604051908082528060200260200182016040528015620000b65781602001602082028036833780820191505090505b5060079080519060200190620000ce929190620001d8565b50600067ffffffffffffffff811115620000ed57620000ec620002d8565b5b6040519080825280602002602001820160405280156200011c5781602001602082028036833780820191505090505b50600590805190602001906200013492919062000267565b506000600190505b603481116200018457600581908060018154018082558091505060019003906000526020600020016000909190919091505580806200017b9062000340565b9150506200013c565b506000600460006101000a81548160ff0219169083151502179055506000600460016101000a81548160ff0219169083151502179055506001600460026101000a81548160ff021916908315150217905550565b82805482825590600052602060002090810192821562000254579160200282015b82811115620002535782518260006101000a81548173ffffffffffffffffffffffffffffffffffffffff021916908373ffffffffffffffffffffffffffffffffffffffff16021790555091602001919060010190620001f9565b5b509050620002639190620002b9565b5090565b828054828255906000526020600020908101928215620002a6579160200282015b82811115620002a557825182559160200191906001019062000288565b5b509050620002b59190620002b9565b5090565b5b80821115620002d4576000816000905550600101620002ba565b5090565b7f4e487b7100000000000000000000000000000000000000000000000000000000600052604160045260246000fd5b7f4e487b7100000000000000000000000000000000000000000000000000000000600052601160045260246000fd5b6000819050919050565b60006200034d8262000336565b91507fffffffffffffffffffffffffffffffffffffffffffffffffffffffffffffffff820362000382576200038162000307565b5b600182019050919050565b612515806200039d6000396000f3fe60806040526004361061004e5760003560e01c80632ae3594a1461005a5780633ccfd60b14610071578063a7e1f6a21461007b578063b60b9fcb14610085578063c2897b10146100a157610055565b3661005557005b600080fd5b34801561006657600080fd5b5061006f6100b8565b005b610079610284565b005b61008361065c565b005b61009f600480360381019061009a9190611be1565b6108db565b005b3480156100ad57600080fd5b506100b6610ae1565b005b600460009054906101000a900460ff16610107576040517f08c379a00000000000000000000000000000000000000000000000000000000081526004016100fe90611ca4565b60405180910390fd5b600260003373ffffffffffffffffffffffffffffffffffffffff1673ffffffffffffffffffffffffffffffffffffffff16815260200190815260200160002060009054906101000a900460ff1615610194576040517f08c379a000000000000000000000000000000000000000000000000000000000815260040161018b90611d10565b60405180910390fd5b60008060003373ffffffffffffffffffffffffffffffffffffffff1673ffffffffffffffffffffffffffffffffffffffff1681526020019081526020016000205403610215576040517f08c379a000000000000000000000000000000000000000000000000000000000815260040161020c90611d7c565b60405180910390fd5b600360003373ffffffffffffffffffffffffffffffffffffffff1673ffffffffffffffffffffffffffffffffffffffff16815260200190815260200160002061025c610d68565b9080600181540180825580915050600190039060005260206000200160009091909190915055565b600460039054906101000a900460ff16156102d4576040517f08c379a00000000000000000000000000000000000000000000000000000000081526004016102cb90611de8565b60405180910390fd5b6001600460036101000a81548160ff021916908315150217905550600460019054906101000a900460ff1661033e576040517f08c379a000000000000000000000000000000000000000000000000000000000815260040161033590611e54565b60405180910390fd5b60008060003373ffffffffffffffffffffffffffffffffffffffff1673ffffffffffffffffffffffffffffffffffffffff16815260200190815260200160002054036103bf576040517f08c379a00000000000000000000000000000000000000000000000000000000081526004016103b690611d7c565b60405180910390fd5b60008060003373ffffffffffffffffffffffffffffffffffffffff1673ffffffffffffffffffffffffffffffffffffffff16815260200190815260200160002054905060008060003373ffffffffffffffffffffffffffffffffffffffff1673ffffffffffffffffffffffffffffffffffffffff1681526020019081526020016000208190555060003373ffffffffffffffffffffffffffffffffffffffff168260405161046c90611ea5565b60006040518083038185875af1925050503d80600081146104a9576040519150601f19603f3d011682016040523d82523d6000602084013e6104ae565b606091505b50509050806104f2576040517f08c379a00000000000000000000000000000000000000000000000000000000081526004016104e990611f06565b60405180910390fd5b6000600160003373ffffffffffffffffffffffffffffffffffffffff1673ffffffffffffffffffffffffffffffffffffffff1681526020019081526020016000205490506000600160003373ffffffffffffffffffffffffffffffffffffffff1673ffffffffffffffffffffffffffffffffffffffff1681526020019081526020016000208190555060003373ffffffffffffffffffffffffffffffffffffffff166002836105a19190611f55565b6040516105ad90611ea5565b60006040518083038185875af1925050503d80600081146105ea576040519150601f19603f3d011682016040523d82523d6000602084013e6105ef565b606091505b5050905080610633576040517f08c379a000000000000000000000000000000000000000000000000000000000815260040161062a90611ffb565b60405180910390fd5b61063b610dcc565b505050506000600460036101000a81548160ff021916908315150217905550565b600460009054906101000a900460ff166106ab576040517f08c379a00000000000000000000000000000000000000000000000000000000081526004016106a290611ca4565b60405180910390fd5b600260003373ffffffffffffffffffffffffffffffffffffffff1673ffffffffffffffffffffffffffffffffffffffff16815260200190815260200160002060009054906101000a900460ff1615610738576040517f08c379a000000000000000000000000000000000000000000000000000000000815260040161072f90611d10565b60405180910390fd5b60008060003373ffffffffffffffffffffffffffffffffffffffff1673ffffffffffffffffffffffffffffffffffffffff16815260200190815260200160002054036107b9576040517f08c379a00000000000000000000000000000000000000000000000000000000081526004016107b090611d7c565b60405180910390fd5b600160003373ffffffffffffffffffffffffffffffffffffffff1673ffffffffffffffffffffffffffffffffffffffff16815260200190815260200160002054341461083a576040517f08c379a000000000000000000000000000000000000000000000000000000000815260040161083190612067565b60405180910390fd5b600160003373ffffffffffffffffffffffffffffffffffffffff1673ffffffffffffffffffffffffffffffffffffffff1681526020019081526020016000205460026108869190611f55565b600160003373ffffffffffffffffffffffffffffffffffffffff1673ffffffffffffffffffffffffffffffffffffffff168152602001908152602001600020819055506108d16100b8565b6108d9610ae1565b565b600460009054906101000a900460ff161561092b576040517f08c379a0000000000000000000000000000000000000000000000000000000008152600401610922906120d3565b60405180910390fd5b8060026109389190611f55565b821015801561094f5750600561094c610fd1565b11155b61098e576040517f08c379a000000000000000000000000000000000000000000000000000000000815260040161098590612165565b60405180910390fd5b34818361099b9190612185565b146109db576040517f08c379a00000000000000000000000000000000000000000000000000000000081526004016109d29061224d565b60405180910390fd5b6007339080600181540180825580915050600190039060005260206000200160009091909190916101000a81548173ffffffffffffffffffffffffffffffffffffffff021916908373ffffffffffffffffffffffffffffffffffffffff160217905550816000803373ffffffffffffffffffffffffffffffffffffffff1673ffffffffffffffffffffffffffffffffffffffff1681526020019081526020016000208190555080600160003373ffffffffffffffffffffffffffffffffffffffff1673ffffffffffffffffffffffffffffffffffffffff168152602001908152602001600020819055506001610acf610fd1565b03610add57610adc610fde565b5b5050565b600460009054906101000a900460ff16610b30576040517f08c379a0000000000000000000000000000000000000000000000000000000008152600401610b2790611ca4565b60405180910390fd5b600260003373ffffffffffffffffffffffffffffffffffffffff1673ffffffffffffffffffffffffffffffffffffffff16815260200190815260200160002060009054906101000a900460ff1615610bbd576040517f08c379a0000000000000000000000000000000000000000000000000000000008152600401610bb490611d10565b60405180910390fd5b60008060003373ffffffffffffffffffffffffffffffffffffffff1673ffffffffffffffffffffffffffffffffffffffff1681526020019081526020016000205403610c3e576040517f08c379a0000000000000000000000000000000000000000000000000000000008152600401610c3590611d7c565b60405180910390fd5b6001600260003373ffffffffffffffffffffffffffffffffffffffff1673ffffffffffffffffffffffffffffffffffffffff16815260200190815260200160002060006101000a81548160ff02191690831515021790555060006001905060005b610ca7610fd1565b811015610d55576002600060078381548110610cc657610cc561226d565b5b9060005260206000200160009054906101000a900473ffffffffffffffffffffffffffffffffffffffff1673ffffffffffffffffffffffffffffffffffffffff1673ffffffffffffffffffffffffffffffffffffffff16815260200190815260200160002060009054906101000a900460ff16610d4257600091505b8080610d4d9061229c565b915050610c9f565b508015610d6557610d64611224565b5b50565b60008060056001600580549050610d7f91906122e4565b81548110610d9057610d8f61226d565b5b906000526020600020015490506005805480610daf57610dae612318565b5b600190038181906000526020600020016000905590558091505090565b60006001905060005b610ddd610fd1565b811015610fbe57600080600060078481548110610dfd57610dfc61226d565b5b9060005260206000200160009054906101000a900473ffffffffffffffffffffffffffffffffffffffff1673ffffffffffffffffffffffffffffffffffffffff1673ffffffffffffffffffffffffffffffffffffffff1681526020019081526020016000205414610e715760009150610fab565b600060078281548110610e8757610e8661226d565b5b9060005260206000200160009054906101000a900473ffffffffffffffffffffffffffffffffffffffff1690506000600260008373ffffffffffffffffffffffffffffffffffffffff1673ffffffffffffffffffffffffffffffffffffffff16815260200190815260200160002060006101000a81548160ff021916908315150217905550600067ffffffffffffffff811115610f2757610f26612347565b5b604051908082528060200260200182016040528015610f555781602001602082028036833780820191505090505b50600360008373ffffffffffffffffffffffffffffffffffffffff1673ffffffffffffffffffffffffffffffffffffffff1681526020019081526020016000209080519060200190610fa8929190611ab2565b50505b8080610fb69061229c565b915050610dd5565b508015610fce57610fcd611837565b5b50565b6000600780549050905090565b600460009054906101000a900460ff161561102e576040517f08c379a0000000000000000000000000000000000000000000000000000000008152600401611025906120d3565b60405180910390fd5b6000611038610fd1565b11611078576040517f08c379a000000000000000000000000000000000000000000000000000000000815260040161106f906123c2565b60405180910390fd5b60036000600660009054906101000a900473ffffffffffffffffffffffffffffffffffffffff1673ffffffffffffffffffffffffffffffffffffffff1673ffffffffffffffffffffffffffffffffffffffff1681526020019081526020016000206110e1610d68565b908060018154018082558091505060019003906000526020600020016000909190919091505560005b611112610fd1565b81101561120657600360003373ffffffffffffffffffffffffffffffffffffffff1673ffffffffffffffffffffffffffffffffffffffff168152602001908152602001600020611160610d68565b9080600181540180825580915050600190039060005260206000200160009091909190915055600360003373ffffffffffffffffffffffffffffffffffffffff1673ffffffffffffffffffffffffffffffffffffffff1681526020019081526020016000206111cd610d68565b908060018154018082558091505060019003906000526020600020016000909190919091505580806111fe9061229c565b91505061110a565b506001600460006101000a81548160ff021916908315150217905550565b600460009054906101000a900460ff16611273576040517f08c379a000000000000000000000000000000000000000000000000000000000815260040161126a90611ca4565b60405180910390fd5b60005b60078054905081101561136057600260006007838154811061129b5761129a61226d565b5b9060005260206000200160009054906101000a900473ffffffffffffffffffffffffffffffffffffffff1673ffffffffffffffffffffffffffffffffffffffff1673ffffffffffffffffffffffffffffffffffffffff16815260200190815260200160002060009054906101000a900460ff1661134d576040517f08c379a00000000000000000000000000000000000000000000000000000000081526004016113449061242e565b60405180910390fd5b80806113589061229c565b915050611276565b506001600460016101000a81548160ff02191690831515021790555060036000600660009054906101000a900473ffffffffffffffffffffffffffffffffffffffff1673ffffffffffffffffffffffffffffffffffffffff1673ffffffffffffffffffffffffffffffffffffffff1681526020019081526020016000206113e5610d68565b90806001815401808255809150506001900390600052602060002001600090919091909150556000611438600660009054906101000a900473ffffffffffffffffffffffffffffffffffffffff16611996565b90505b60118110156115055760036000600660009054906101000a900473ffffffffffffffffffffffffffffffffffffffff1673ffffffffffffffffffffffffffffffffffffffff1673ffffffffffffffffffffffffffffffffffffffff1681526020019081526020016000206114ad610d68565b90806001815401808255809150506001900390600052602060002001600090919091909150556114fe600660009054906101000a900473ffffffffffffffffffffffffffffffffffffffff16611996565b905061143b565b60158111156116125760005b611519610fd1565b81101561160c576000611569600783815481106115395761153861226d565b5b9060005260206000200160009054906101000a900473ffffffffffffffffffffffffffffffffffffffff16611996565b905060158111156115f8576000600160006007858154811061158e5761158d61226d565b5b9060005260206000200160009054906101000a900473ffffffffffffffffffffffffffffffffffffffff1673ffffffffffffffffffffffffffffffffffffffff1673ffffffffffffffffffffffffffffffffffffffff168152602001908152602001600020819055505b5080806116049061229c565b915050611511565b50611834565b60005b61161d610fd1565b81101561183257600061166d6007838154811061163d5761163c61226d565b5b9060005260206000200160009054906101000a900473ffffffffffffffffffffffffffffffffffffffff16611996565b90508281108061167d5750601581115b1561170a576000600160006007858154811061169c5761169b61226d565b5b9060005260206000200160009054906101000a900473ffffffffffffffffffffffffffffffffffffffff1673ffffffffffffffffffffffffffffffffffffffff1673ffffffffffffffffffffffffffffffffffffffff1681526020019081526020016000208190555061181e565b82810361181d576002600160006007858154811061172b5761172a61226d565b5b9060005260206000200160009054906101000a900473ffffffffffffffffffffffffffffffffffffffff1673ffffffffffffffffffffffffffffffffffffffff1673ffffffffffffffffffffffffffffffffffffffff1681526020019081526020016000205461179b919061247d565b60016000600785815481106117b3576117b261226d565b5b9060005260206000200160009054906101000a900473ffffffffffffffffffffffffffffffffffffffff1673ffffffffffffffffffffffffffffffffffffffff1673ffffffffffffffffffffffffffffffffffffffff168152602001908152602001600020819055505b5b50808061182a9061229c565b915050611615565b505b50565b600067ffffffffffffffff81111561185257611851612347565b5b6040519080825280602002602001820160405280156118805781602001602082028036833780820191505090505b5060079080519060200190611896929190611aff565b50600067ffffffffffffffff8111156118b2576118b1612347565b5b6040519080825280602002602001820160405280156118e05781602001602082028036833780820191505090505b50600590805190602001906118f6929190611ab2565b506000600190505b60348111611942576005819080600181540180825580915050600190039060005260206000200160009091909190915055808061193a9061229c565b9150506118fe565b506000600460006101000a81548160ff0219169083151502179055506000600460016101000a81548160ff0219169083151502179055506001600460026101000a81548160ff021916908315150217905550565b600080600360008473ffffffffffffffffffffffffffffffffffffffff1673ffffffffffffffffffffffffffffffffffffffff168152602001908152602001600020805480602002602001604051908101604052809291908181526020018280548015611a2257602002820191906000526020600020905b815481526020019060010190808311611a0e575b505050505090506000805b8251811015611a7957611a59838281518110611a4c57611a4b61226d565b5b6020026020010151611a84565b82611a649190612185565b91508080611a719061229c565b915050611a2d565b508092505050919050565b600080600d83611a9491906124ae565b9050600a8110611aa857600a915050611aad565b809150505b919050565b828054828255906000526020600020908101928215611aee579160200282015b82811115611aed578251825591602001919060010190611ad2565b5b509050611afb9190611b89565b5090565b828054828255906000526020600020908101928215611b78579160200282015b82811115611b775782518260006101000a81548173ffffffffffffffffffffffffffffffffffffffff021916908373ffffffffffffffffffffffffffffffffffffffff16021790555091602001919060010190611b1f565b5b509050611b859190611b89565b5090565b5b80821115611ba2576000816000905550600101611b8a565b5090565b600080fd5b6000819050919050565b611bbe81611bab565b8114611bc957600080fd5b50565b600081359050611bdb81611bb5565b92915050565b60008060408385031215611bf857611bf7611ba6565b5b6000611c0685828601611bcc565b9250506020611c1785828601611bcc565b9150509250929050565b600082825260208201905092915050565b7f536f7272792c207468652067616d65206861736e74207374617274656420796560008201527f742e000000000000000000000000000000000000000000000000000000000000602082015250565b6000611c8e602283611c21565b9150611c9982611c32565b604082019050919050565b60006020820190508181036000830152611cbd81611c81565b9050919050565b7f596f752068617665207374616e64656400000000000000000000000000000000600082015250565b6000611cfa601083611c21565b9150611d0582611cc4565b602082019050919050565b60006020820190508181036000830152611d2981611ced565b9050919050565b7f596f7520617265206e6f74206120706c61796572000000000000000000000000600082015250565b6000611d66601483611c21565b9150611d7182611d30565b602082019050919050565b60006020820190508181036000830152611d9581611d59565b9050919050565b7f63616e27742072652d656e7472792061747461636b0000000000000000000000600082015250565b6000611dd2601583611c21565b9150611ddd82611d9c565b602082019050919050565b60006020820190508181036000830152611e0181611dc5565b9050919050565b7f47616d65206973206e6f7420656e646564000000000000000000000000000000600082015250565b6000611e3e601183611c21565b9150611e4982611e08565b602082019050919050565b60006020820190508181036000830152611e6d81611e31565b9050919050565b600081905092915050565b50565b6000611e8f600083611e74565b9150611e9a82611e7f565b600082019050919050565b6000611eb082611e82565b9150819050919050565b7f4465706f73697420726566756e64206661696c65642e00000000000000000000600082015250565b6000611ef0601683611c21565b9150611efb82611eba565b602082019050919050565b60006020820190508181036000830152611f1f81611ee3565b9050919050565b7f4e487b7100000000000000000000000000000000000000000000000000000000600052601160045260246000fd5b6000611f6082611bab565b9150611f6b83611bab565b9250817fffffffffffffffffffffffffffffffffffffffffffffffffffffffffffffffff0483118215151615611fa457611fa3611f26565b5b828202905092915050565b7f42657420726566756e64206661696c65642e0000000000000000000000000000600082015250565b6000611fe5601283611c21565b9150611ff082611faf565b602082019050919050565b6000602082019050818103600083015261201481611fd8565b9050919050565b7f73686f756c64206d61746368207468652070726576696f757320626574000000600082015250565b6000612051601d83611c21565b915061205c8261201b565b602082019050919050565b6000602082019050818103600083015261208081612044565b9050919050565b7f536f7272792c207468652067616d652068617320737461727465642e00000000600082015250565b60006120bd601c83611c21565b91506120c882612087565b602082019050919050565b600060208201905081810360008301526120ec816120b0565b9050919050565b7f6d616b652073757265206465706f7369742069732074776f2074696d6573206c60008201527f6172676572207468616e20626574000000000000000000000000000000000000602082015250565b600061214f602e83611c21565b915061215a826120f3565b604082019050919050565b6000602082019050818103600083015261217e81612142565b9050919050565b600061219082611bab565b915061219b83611bab565b9250827fffffffffffffffffffffffffffffffffffffffffffffffffffffffffffffffff038211156121d0576121cf611f26565b5b828201905092915050565b7f6465706f73697420706c757320626574206973206e6f7420657175616c20746f60008201527f20796f75722076616c7565000000000000000000000000000000000000000000602082015250565b6000612237602b83611c21565b9150612242826121db565b604082019050919050565b600060208201905081810360008301526122668161222a565b9050919050565b7f4e487b7100000000000000000000000000000000000000000000000000000000600052603260045260246000fd5b60006122a782611bab565b91507fffffffffffffffffffffffffffffffffffffffffffffffffffffffffffffffff82036122d9576122d8611f26565b5b600182019050919050565b60006122ef82611bab565b91506122fa83611bab565b92508282101561230d5761230c611f26565b5b828203905092915050565b7f4e487b7100000000000000000000000000000000000000000000000000000000600052603160045260246000fd5b7f4e487b7100000000000000000000000000000000000000000000000000000000600052604160045260246000fd5b7f4e6f7420656e6f75676820706c61796572730000000000000000000000000000600082015250565b60006123ac601283611c21565b91506123b782612376565b602082019050919050565b600060208201905081810360008301526123db8161239f565b9050919050565b7f5468657265206973206120706c61796572206e6f74207374616e646564000000600082015250565b6000612418601d83611c21565b9150612423826123e2565b602082019050919050565b600060208201905081810360008301526124478161240b565b9050919050565b7f4e487b7100000000000000000000000000000000000000000000000000000000600052601260045260246000fd5b600061248882611bab565b915061249383611bab565b9250826124a3576124a261244e565b5b828204905092915050565b60006124b982611bab565b91506124c483611bab565b9250826124d4576124d361244e565b5b82820690509291505056fea2646970667358221220234ee9b8f77fa82ad3fa1e3bbcfc864deddea41a3d39e9d6528c2a12048f30d864736f6c634300080e0033",
  "immutableReferences": {},
  "source": "// SPDX-License-Identifier: MIT\r\npragma solidity ^0.8.14;\r\n\r\ncontract Game {\r\n    // Game info \r\n    mapping (address => uint) private deposits;\r\n    mapping (address => uint) private bets;\r\n    mapping (address => bool) private isStand;\r\n    mapping (address => uint[]) private hands;\r\n\r\n    // uint private lastJoin;\r\n    bool private isStart;\r\n    bool private isEnd;\r\n    bool private debug;\r\n    bool private lock;\r\n\r\n    uint[] private deck;\r\n    address private dealer;\r\n    address payable[] private players;\r\n    \r\n    uint constant DEALER_MIN_POINTS = 17;\r\n    uint constant MAX_POINTS = 21;\r\n    \r\n    // debugging events\r\n    event blockNum(uint value);\r\n    event add(address addr);\r\n    event dp(uint value);\r\n    event bt(uint value);\r\n\r\n    constructor() {\r\n        dealer = address(this);\r\n        initGame();\r\n    }\r\n\r\n    // game has started\r\n    modifier gameStarted() {\r\n        require(isStart, \"Sorry, the game hasnt started yet.\");\r\n        _;\r\n    }\r\n\r\n    // game has not started \r\n    modifier gameNotStarted() {\r\n        require(!isStart, \"Sorry, the game has started.\");\r\n        _;\r\n    }\r\n\r\n    // player has not stand yet\r\n    modifier notStand() {\r\n        require(!isStand[msg.sender], \"You have standed\");\r\n        _;\r\n    }\r\n\r\n    modifier GameEnded(){\r\n        require(isEnd, \"Game is not ended\");\r\n        _;\r\n    }\r\n\r\n    modifier areAllPlayersStand() {\r\n        for (uint i=0; i<players.length; i++){\r\n            require(isStand[players[i]], \"There is a player not standed\");\r\n        }\r\n        _;\r\n    }\r\n\r\n    modifier isPlayer() {\r\n        require(deposits[msg.sender] != 0, \"You are not a player\");\r\n        _;\r\n    }\r\n\r\n    modifier notReEntrancy() {\r\n        require(!lock, \"can't re-entry attack\");\r\n        lock = true;\r\n        _;\r\n        lock = false;\r\n    }\r\n\r\n    // **** make sure modify the function to view ****  \r\n    // function getTime() private returns(uint time) {\r\n    //     if (debug) {emit blockNum(block.number); }\r\n    //     return block.number;\r\n    // }\r\n\r\n    // JoinGame - allows players to join an existing game\r\n    function joinGame(uint deposit, uint bet) public payable gameNotStarted {\r\n        require(deposit >= 2 * bet && getPlayerNum() <= 5, \"make sure deposit is two times larger than bet\");    // make sure deposit is greater than bet\r\n        require(deposit + bet == msg.value, \"deposit plus bet is not equal to your value\");\r\n        players.push(payable(msg.sender));    // add player to the players (payable)\r\n\r\n        deposits[msg.sender] = deposit;\r\n        bets[msg.sender] = bet;\r\n        // lastJoin = getTime();   // update last join time\r\n\r\n        // start the game if this is the first player\r\n        if (getPlayerNum() == 1) {\r\n            startGame();\r\n        }\r\n    }\r\n\r\n    // startGame - allows the dealer to start the game after someone joined\r\n    function startGame() private gameNotStarted {\r\n        require(getPlayerNum() > 0, \"Not enough players\");\r\n        // require(getTime() - lastJoin == 3, \"Wait until more players join the game.\");\r\n\r\n        // draw one card for dealder\r\n        hands[dealer].push(drawOne());\r\n\r\n        for (uint i=0; i < getPlayerNum(); i++)\r\n        {   \r\n            /* TODO  \r\n            1. get the deck from the contract and random draw two card for each player\r\n            2 .update deck and player points \r\n            */\r\n            hands[msg.sender].push(drawOne());\r\n            hands[msg.sender].push(drawOne());\r\n        }\r\n\r\n        isStart = true;\r\n    }\r\n\r\n    function drawOne() private returns (uint) {\r\n        uint temp = deck[deck.length - 1];\r\n        deck.pop();\r\n        return temp;\r\n    }\r\n\r\n    // endGame - allows dealer to end the game -- Can only be called by the dealer\r\n    function endGame() private gameStarted areAllPlayersStand {\r\n        /*  TODO\r\n            1. only the dealer can call this function (properly work)\r\n            2. need to check all players have standed the game\r\n            3. might need to call withdraw as the game has ended.\r\n        */\r\n        isEnd = true;\r\n\r\n        hands[dealer].push(drawOne());\r\n        uint dealerPoints = getPoints(dealer);\r\n        \r\n        // draw cards until 17 points\r\n        while (dealerPoints < DEALER_MIN_POINTS) {\r\n            hands[dealer].push(drawOne());\r\n            dealerPoints = getPoints(dealer);\r\n        }\r\n\r\n        // if dealer bust, then all players win\r\n        if (dealerPoints > MAX_POINTS) {\r\n            for (uint i=0; i < getPlayerNum(); i++) {\r\n                uint playerPoints = getPoints(players[i]);\r\n                if (playerPoints > MAX_POINTS) {\r\n                    bets[players[i]] = 0;\r\n                }\r\n            }\r\n        } else {\r\n            for (uint i=0; i < getPlayerNum(); i++)\r\n            {\r\n                uint playerPoints = getPoints(players[i]);\r\n                if (playerPoints < dealerPoints || playerPoints > MAX_POINTS) {\r\n                    // player lose\r\n                    bets[players[i]] = 0;\r\n                } else if (playerPoints == dealerPoints) {\r\n                    // tie\r\n                    bets[players[i]] = bets[players[i]] / 2;\r\n                }\r\n            }\r\n        }\r\n    }\r\n\r\n    // stand - allows a player to stand \r\n    function stand() public gameStarted notStand isPlayer {\r\n        isStand[msg.sender] = true;\r\n\r\n        bool allStand = true;\r\n        for(uint i = 0; i < getPlayerNum(); i++) {\r\n            if (!isStand[players[i]]) {\r\n                allStand = false;\r\n            }\r\n        }\r\n\r\n        if (allStand) {\r\n            endGame();\r\n        }\r\n    }\r\n\r\n    // hit - allows a player to hit\r\n    function hit() public gameStarted notStand isPlayer {\r\n        /* TODO\r\n            1. randomly draw one card from the deck (consider shuffle the deck)\r\n            2. update player points\r\n        */\r\n        hands[msg.sender].push(drawOne());\r\n    }\r\n\r\n    // doubleDown - allows a player to double down\r\n    function doubleDown() public payable gameStarted notStand isPlayer {\r\n        require(msg.value == bets[msg.sender], \"should match the previous bet\"); // double down ***** ? use == to restrict the value\r\n        bets[msg.sender] = 2 * bets[msg.sender];\r\n        hit();\r\n        stand();\r\n    }\r\n\r\n\r\n    // getPoints - returns the points of a player or dealer ----------DONE\r\n    function getPoints(address addr) private view returns (uint value) {\r\n        uint[] memory hand = hands[addr];\r\n        uint points = 0;\r\n        for (uint i=0; i<hand.length; i++) {\r\n            points += getCardPoints(hand[i]);\r\n        }\r\n        return points;\r\n    }\r\n\r\n    function getCardPoints(uint card) private pure returns (uint value) {\r\n        uint points = card % 13;\r\n        if (points >= 10) {\r\n            return 10;\r\n        } \r\n        return points;\r\n    }\r\n\r\n    // withdraw - dealer or playes can withdraw money \r\n    function withdraw() public payable notReEntrancy GameEnded isPlayer {\r\n        /* TODO\r\n            1. refund money iff something bad happened\r\n            2. allow winners to withdraw their money\r\n            3. re-entency attack\r\n        */\r\n        uint desposit = deposits[msg.sender];\r\n        deposits[msg.sender] = 0;\r\n        (bool despositSuccess, ) = msg.sender.call{value:desposit}(\"\");\r\n        require(despositSuccess, \"Deposit refund failed.\");\r\n\r\n        uint bet = bets[msg.sender];\r\n        bets[msg.sender] = 0;\r\n        (bool betSuccess, ) = msg.sender.call{value: bet*2}(\"\");\r\n        require(betSuccess, \"Bet refund failed.\");\r\n\r\n        reset();\r\n    }\r\n\r\n    function reset() private {\r\n        bool canReset = true;\r\n\r\n        for (uint i = 0; i < getPlayerNum(); i++) {\r\n            if (deposits[players[i]] != 0) {\r\n                canReset = false;\r\n            } else {\r\n                address player = players[i];\r\n                isStand[player] = false;\r\n                hands[player] = new uint[](0);\r\n            }\r\n        }\r\n\r\n        if (canReset) {\r\n            initGame();\r\n        } \r\n    }\r\n\r\n    function initGame() private {\r\n        players = new address payable[](0);\r\n        deck = new uint[](0);\r\n\r\n        for(uint i=1; i<=52; i++){\r\n            deck.push(i);\r\n        }\r\n\r\n        // lastJoin = getTime();\r\n        isStart = false;\r\n        isEnd = false;\r\n        debug= true;\r\n    }\r\n\r\n    // Black Jack\r\n    function blackJack() private gameStarted returns (bool isWin) {\r\n        /* TODO\r\n            1. conditions and cards\r\n            2. modify the winner\r\n            3. return bool\r\n        */\r\n    }\r\n\r\n    // get length of a list\r\n    function getPlayerNum() private view returns(uint) {  \r\n        return players.length;\r\n    } \r\n\r\n    //can receive money\r\n    receive() external payable {}\r\n}",
  "sourcePath": "C:\\Users\\lijin\\OneDrive\\Desktop\\blackjack\\blackjack\\contracts\\Blackjack.sol",
  "compiler": {
    "name": "solc",
    "version": "0.8.14+commit.80d49f37.Emscripten.clang"
  },
  "schemaVersion": "3.4.7",
  "updatedAt": "2022-05-22T11:05:39.133Z",
  "devdoc": {
    "kind": "dev",
    "methods": {},
    "version": 1
  },
  "userdoc": {
    "kind": "user",
    "methods": {},
    "version": 1
  }
}