{
  "contractName": "Payable",
  "abi": [
    {
      "inputs": [],
      "stateMutability": "payable",
      "type": "constructor",
      "payable": true
    },
    {
      "inputs": [],
      "name": "owner",
      "outputs": [
        {
          "internalType": "address payable",
          "name": "",
          "type": "address"
        }
      ],
      "stateMutability": "view",
      "type": "function",
      "constant": true
    },
    {
      "inputs": [],
      "name": "deposit",
      "outputs": [],
      "stateMutability": "payable",
      "type": "function",
      "payable": true
    },
    {
      "inputs": [],
      "name": "notPayable",
      "outputs": [],
      "stateMutability": "nonpayable",
      "type": "function"
    },
    {
      "inputs": [],
      "name": "withdraw",
      "outputs": [],
      "stateMutability": "nonpayable",
      "type": "function"
    },
    {
      "inputs": [
        {
          "internalType": "address payable",
          "name": "_to",
          "type": "address"
        },
        {
          "internalType": "uint256",
          "name": "_amount",
          "type": "uint256"
        }
      ],
      "name": "transfer",
      "outputs": [],
      "stateMutability": "nonpayable",
      "type": "function"
    }
  ],
  "bytecode": "0x6080604052336000806101000a81548173ffffffffffffffffffffffffffffffffffffffff021916908373ffffffffffffffffffffffffffffffffffffffff160217905550610486806100536000396000f3fe60806040526004361061004a5760003560e01c8063273884bd1461004f5780633ccfd60b146100665780638da5cb5b1461007d578063a9059cbb146100a8578063d0e30db0146100d1575b600080fd5b34801561005b57600080fd5b506100646100db565b005b34801561007257600080fd5b5061007b6100dd565b005b34801561008957600080fd5b506100926101b3565b60405161009f91906102cb565b60405180910390f35b3480156100b457600080fd5b506100cf60048036038101906100ca919061034d565b6101d7565b005b6100d9610288565b005b565b600047905060008060009054906101000a900473ffffffffffffffffffffffffffffffffffffffff1673ffffffffffffffffffffffffffffffffffffffff1682604051610129906103be565b60006040518083038185875af1925050503d8060008114610166576040519150601f19603f3d011682016040523d82523d6000602084013e61016b565b606091505b50509050806101af576040517f08c379a00000000000000000000000000000000000000000000000000000000081526004016101a690610430565b60405180910390fd5b5050565b60008054906101000a900473ffffffffffffffffffffffffffffffffffffffff1681565b60008273ffffffffffffffffffffffffffffffffffffffff16826040516101fd906103be565b60006040518083038185875af1925050503d806000811461023a576040519150601f19603f3d011682016040523d82523d6000602084013e61023f565b606091505b5050905080610283576040517f08c379a000000000000000000000000000000000000000000000000000000000815260040161027a90610430565b60405180910390fd5b505050565b565b600073ffffffffffffffffffffffffffffffffffffffff82169050919050565b60006102b58261028a565b9050919050565b6102c5816102aa565b82525050565b60006020820190506102e060008301846102bc565b92915050565b600080fd5b6102f4816102aa565b81146102ff57600080fd5b50565b600081359050610311816102eb565b92915050565b6000819050919050565b61032a81610317565b811461033557600080fd5b50565b60008135905061034781610321565b92915050565b60008060408385031215610364576103636102e6565b5b600061037285828601610302565b925050602061038385828601610338565b9150509250929050565b600081905092915050565b50565b60006103a860008361038d565b91506103b382610398565b600082019050919050565b60006103c98261039b565b9150819050919050565b600082825260208201905092915050565b7f4661696c656420746f2073656e64204574686572000000000000000000000000600082015250565b600061041a6014836103d3565b9150610425826103e4565b602082019050919050565b600060208201905081810360008301526104498161040d565b905091905056fea264697066735822122006612cdb4014317d497bf5d62fad5f0a6a54a6ffd008eb44377cf20ec0d9d67764736f6c634300080e0033",
  "immutableReferences": {},
  "source": "// SPDX-License-Identifier: MIT\r\npragma solidity ^0.8.14;\r\n\r\ncontract Payable {\r\n    // Payable address can receive Ether\r\n    address payable public owner;\r\n\r\n    // Payable constructor can receive Ether\r\n    constructor() payable {\r\n        owner = payable(msg.sender);\r\n    }\r\n\r\n    // Function to deposit Ether into this contract.\r\n    // Call this function along with some Ether.\r\n    // The balance of this contract will be automatically updated.\r\n    function deposit() public payable {}\r\n\r\n    // Call this function along with some Ether.\r\n    // The function will throw an error since this function is not payable.\r\n    function notPayable() public {}\r\n\r\n    // Function to withdraw all Ether from this contract.\r\n    function withdraw() public {\r\n        // get the amount of Ether stored in this contract\r\n        uint amount = address(this).balance;\r\n\r\n        // send all Ether to owner\r\n        // Owner can receive Ether since the address of owner is payable\r\n        (bool success, ) = owner.call{value: amount}(\"\");\r\n        require(success, \"Failed to send Ether\");\r\n    }\r\n\r\n    // Function to transfer Ether from this contract to address from input\r\n    function transfer(address payable _to, uint _amount) public {\r\n        // Note that \"to\" is declared as payable\r\n        (bool success, ) = _to.call{value: _amount}(\"\");\r\n        require(success, \"Failed to send Ether\");\r\n    }\r\n}",
  "sourcePath": "C:\\Users\\lijin\\OneDrive\\Desktop\\blackjack\\blackjack\\contracts\\Payable.sol",
  "compiler": {
    "name": "solc",
    "version": "0.8.14+commit.80d49f37.Emscripten.clang"
  },
  "schemaVersion": "3.4.7",
  "updatedAt": "2022-05-22T02:05:51.884Z",
  "networkType": "ethereum",
  "devdoc": {
    "kind": "dev",
    "methods": {},
    "version": 1
  },
  "userdoc": {
    "kind": "user",
    "methods": {},
    "version": 1
  }
}